:02000000562880
:0E000600293083120313FD00FD0B07280800AC
:0E0014008312031323088A00220882000800CA
:100022000A208A110A128000840AA20A0319A30A6A
:08003200F003031D1128080072
:10003A0083120313A9012508F1000130F0007108A9
:10004A0003192B28F00D7010FF3E25287008A80010
:10005A002408840070080005F10071080130031DAE
:10006A000030F0002708F006031953282608003C40
:10007A000318432803200320A6033B2824088400EE
:10008A0028080005F10071080130031D0030F00056
:10009A002708F00603195328FF30A9002908F000A1
:0200AA0008004C
:1000AC0083120313A001A1018030831686003F3018
:1000BC00831286000630A4000730A5000130A6008C
:1000CC000130A7001D20700803197828A00A031915
:1000DC00A10AA330FC005530FD00FD0B7328FC0B6E
:1000EC00732899282008F0002108F100F00DF10D7B
:1000FC007010F00DF10D70109B30F00700300318EC
:10010C00013EF1077008A2007108A3000A208A11B1
:10011C000A1286002130FC007630FD00FD0B94287D
:0A012C00FC0B9428000060289A28BC
:100136003F340034003400340634003400340034D4
:100146005B340034003400344F340034003400345F
:1001560066340034003400346D3400340034003426
:100166007D34003400340034073400340034003465
:100176007F340034003400346F34003400340034EB
:02400E004A2F37
:00000001FF
