:020000000328D3
:100006008316031386013F3083128600A330FC005B
:100016005530FD00FD0B0D28FC0B0D280630860023
:10002600A330FC005530FD00FD0B1728FC0B1728EC
:100036005B308600A330FC005530FD00FD0B212807
:10004600FC0B21284F308600A330FC005530FD0004
:10005600FD0B2B28FC0B2B2866308600A330FC00FA
:100066005530FD00FD0B3528FC0B35286D3086001C
:10007600A330FC005530FD00FD0B3F28FC0B3F284C
:100086007D308600A330FC005530FD00FD0B49286D
:10009600FC0B492807308600A330FC005530FD00D4
:1000A600FD0B5328FC0B53287F308600A330FC0041
:1000B6005530FD00FD0B5D28FC0B5D286F3086007A
:1000C600A330FC005530FD00FD0B6728FC0B6728AC
:0400D60006286C2864
:02400E004A2F37
:00000001FF
