:02000000132EBD
:10000600103083120313FD00FD0B072800000800C3
:0400160000000800DE
:10001A00083083120313FC002330FD00FD0B132864
:06002A00FC0B1328080086
:0E003000F201F101F001F801F30100300800C7
:10003E0083120313D41B2528061126280615541BDC
:10004E002A2886112B288615D41A2F280612302816
:10005E000616541A3428861235288616441839285E
:10006E0086173A28861306170B200613D419412833
:10007E00061142280615541946288611472886155A
:10008E00D4184B2806124C280616541850288612DF
:10009E005128861644185528861756288613061793
:1000AE000B200613441C5D280D205E28032008003B
:1000BE00FB14FB1F6928FF30F300F200F100F00083
:0800CE00FA0DF20CFF300800EE
:1000D6007B15FB1F75280130F300F201F101F001D9
:0800E600FA0DF20CFF300800D6
:0800EE00FA1FF21300300800B4
:1000F60083120313FD01F801700803190034740616
:10010600FA00FA1BFD09FB01F41F8B28F409F40A17
:10011600F01F8F28F009F00A70087404FA00FA1B21
:10012600B3287408F802F00D700DF80D7408F8077E
:10013600F00D0630FC00700DF80D74087018F8020A
:10014600701CF807F00DFC0B9E28701CF8077B1836
:10015600C128FD1F0034F009F00AF809F80A003436
:10016600F41FBE28F01BBB287008F800F001AC286D
:10017600F001F00A0034F009FB0A9428F80A740822
:100186007802031DAC28F801F00AF01FAC28FF34F2
:0201960008005F
:1001980083120313FB017308031D7708031923292E
:1001A80072087606FA007708F3077E30031CE02809
:1001B800F30203182629E328F302031C29297208ED
:1001C800F8007108FC007008FD00F817F617031016
:1001D800F201F101F0011830A0007D1CFD2874081F
:1001E800F00775080318750FF10776080318760FDE
:1001F800F207F20CF10CF00CF80CFC0CFD0C0310DF
:10020800A00BF128F21B0D29F80DF00DF10DF20DE0
:10021800F3037B1B701C1F29F81F1F29F00A031901
:10022800F10A0319F20A031D1F29F20CF10CF00C54
:10023800F30A03192629FA1FF21300302B2901307B
:1002480018202B2902305F202B2904306B20000056
:0202580008009C
:10025A00A0017208031D42297108F2007008F1001A
:10026A00F001A0157208031D42297108F200F1017C
:10027A00A01120167208031950292008F302031D41
:10028A00031C54290310F21B5829F00DF10DF20D2D
:10029A00F30B482954290130FC0018205B2902304D
:0E02AA00FC006B205B290430FC00772008006C
:1002B8008312031344105208D4001F20441408006A
:0602C800FB15FF300800E9
:1002CE00831203135208F2007208F100F20A530867
:1002DE00F000D30A700884000008F0007108840052
:1002EE007008800071088400000803197F296B29AB
:0602FE005208F0000800A8
:1003040083120313FA017308031D7A147708031D7B
:10031400FA147A080319CE29033A031999297A1889
:100324009629F61FCC29CA29F21FCA29CC2972089A
:100334008039FA00F21376088039F6137A06031925
:10034400A7297A080319CA29CC2977087302031943
:10035400AE29031CC229C629760872020319B529DD
:10036400031CC229C629750871020319BC29031C80
:10037400C229C629740870020319CE290318C62994
:10038400FA080319CC29CA29FA080319CA29CC295D
:1003940003140800031008000314031508000800E0
:0E03A400073083120313FD00FD0BD62908005D
:1003B200831203137408003A031DF4297508003AE6
:1003C200031DF4297608003A031DF4297708003A40
:1003D200031DF429FF30F000FF30F1007F30F200FE
:1003E200FF30F3008F2A8312031377080319832A3D
:1003F20073080319862A720876068039FA00F21702
:10040200F617A0017208F8007108FC007008FD00E0
:100412007408FD027508031C750FFC027608031CA4
:10042200760FF802F801FC01FD01031C1F2A0310DC
:10043200F20CF10CF00CF80C0130A0007708F3027A
:10044200031C292A7E302007F3070318892A2E2A43
:100452007E302007F307031C8C2A1830FA07FD0DA3
:10046200FC0DF80DF00DF10DF20DA00D7408F00267
:100472007508031C750FF1027608031C760FF20251
:10048200760DA004201C472A7D14522A7408F00716
:1004920075080318750FF10776080318760AF20734
:1004A2007D10FA031F307A05031D302A7B1B7D1C49
:1004B200792A0310F00DF10DF20DA00D7408F0026F
:1004C2007508031C750FF1027608031C760FF20201
:1004D200760D20040139FD070318FC0A0319F80AF6
:1004E200031D792AF80CFC0CFD0CF30A0319892A66
:1004F200FA1FF8137808F2007C08F1007D08F0007A
:1005020000308E2A013064218E2A023018208E2A71
:0E05120004305F208E2A08306B2000000800A5
:1005200083120313D001D1014508CC004608CD0049
:100530004708CE004808CF004F08FF3A031DAA2AFB
:100540004E08FF3A031DAA2A4D08FF3A031DAA2AA6
:100550004C08FF3A031DB42A4908D2002E30D300BC
:1005600067210330F0008D2C0130CA00CE1FC32A52
:1005700080304E06F0007008CE00CA0A4908840098
:100580002D308000C90A0030F0004F06031DD22A2A
:1005900070084E06031DD22A70084D06031DD22A8C
:1005A0004C08003A031DDB2A4908D2003230D30040
:1005B0006721F0018D2C4F08FF3A031DE92A4E08F0
:1005C000003A031DE92A4D08003A031DE92A4C08A8
:1005D000003A031DF32A4908D2002A30D3006721CC
:1005E0004A08F0008D2C0030F4000030F500003097
:1005F000F6007F30F7004C08F0004D08F1004E087F
:10060000F2004F08F3008221013003180030F0009F
:1006100070080319262B4C08F0004D08F1004E0815
:10062000F2004F08F3000030F4000030F5002030F5
:10063000F6008230F700CC207008CC007108CD00A5
:100640007208CE007308CF00D103F32A0030F40003
:100650000030F5002030F6008230F7004C08F00042
:100660004D08F1004E08F2004F08F30082210130DE
:10067000031C0030F00070080319592B4C08F000DF
:100680004D08F1004E08F2004F08F300CD30F400A1
:10069000CC30F5004C30F6007B30F700CC207008F1
:1006A000CC007108CD007208CE007308CF00D10ACB
:1006B000262BFF304C05F800FF304D05F9007F3048
:1006C0004E05FA0000304F05FB007808F400790869
:1006D000F5007A08F6007B08F700F40DF50DF60D2D
:1006E000F70D741000304C05F00000304D05F1009E
:1006F00000304E05F200FF304F05F3007008CC00CB
:100700007108CD007208CE007308CF0074084C0445
:10071000F00075084D04F10076084E04F2007708E9
:100720004F04F3007008CC007108CD007208CE00B1
:100730007308CF007F304F02F0007008CB0001300B
:10074000CF007008F4004C08F0004D08F1004E088E
:10075000F2004F08F30074080319B52BF00DF10DEA
:10076000F20DF30D7010FF3EAC2B7008CC00710839
:10077000CD007208CE007308CF004F08303EF00065
:100780004908840070088000C90A80305106F000D2
:100790008030013A7002031CD62B8030063AF000FC
:1007A000803051067002031CD62BDD2B49088400D3
:1007B0002E308000C90A0130D0000630CB004B0833
:1007C000003A03193B2CCF014C08F0004D08F10012
:1007D0004E08F2004F08F300F00DF10DF20DF30D8D
:1007E0007010F00DF10DF20DF30D70104C08F007C4
:1007F0004D0803184D0FF1074E0803184E0FF2076E
:100800004F0803184F0FF3077008CC007108CD0094
:100810007208CE007308CF004C08F0004D08F100BC
:100820004E08F2004F08F300F00DF10DF20DF30D3C
:1008300070107008CC007108CD007208CE007308EB
:10084000CF004F08303EF000490884007008800057
:10085000C90A5008003A031D392CD1035108003A47
:10086000031D392C490884002E308000C90A01304C
:10087000D000CB03DF2BFF30490784000008303A5B
:10088000031D442CC9033B2CFF304907840000089A
:100890002E3A031D4C2CC9035108003A0319892C28
:1008A0004908840065308000C90A80305106F00094
:1008B0008030003A70020318652C490884002D30FE
:1008C0008000C90A5108003CD1005108CB0080309B
:1008D000093AF00080305106700203187B2C0A3070
:1008E000F4004B08F0007B203030F007490884000A
:1008F00070088000C90A0A30F4004B08F0007B2021
:100900007808F0003030F007490884007008800053
:0C091000C90A490884008001F0010800B9
:10091C00A02C803083120313C500B32CC030C5004B
:10092C00B32C9430C500B32CD430C500B32C80301C
:10093C00C500B32C831203134508013A03198F2CFD
:10094C004508023A0319942C4508033A0319972CCD
:10095C004508043A03199A2C9D2C4603F0004508CF
:10096C00F0077008C5007008D4001F204410C8019F
:10097C0048084707840000080319CC2C480847078F
:10098C0084000008D2005C21C80ABE2C4414080064
:10099C0083120313C601C7014508F2004508F30092
:1009AC00720884000008203A031DE12C4608470415
:1009BC00031DE12CEE2C0130C6000030C70072087C
:1009CC0084000008F0007308840070088000F30AAB
:1009DC007208F100F20A710884000008003A031D45
:0809EC00D62C4508F0000800BC
:1009F400831203137008F8007108F000F101F2018A
:100A0400F301FB01FC019630F300FA017008F100D8
:0C0A14007808F000F801F2012D21080024
:0E0A20008312031339088A0038088200080088
:100A2E00831203139F01C0309F042109F000700848
:100A3E0083169F051F179F1783124508F000F00DB0
:100A4E007010F00D7010F00D701070089F041F14D0
:100A5E00D2211F151F1D352D0000312D1F101E0810
:100A6E00F100F00183161E08F0040030F1040800B6
:100A7E00013083120313C5000130C6002230C700B7
:100A8E008E243A30C500CE247008C7000130C50050
:100A9E000830C6008E24DF30D2005C214330D200F5
:0A0AAE005C212030D2005C2108001A
:100AB800831203133408C5003508C6003608C7007A
:0C0AC8003708C8003A30C900902208002E
:100AD40083120313C5011725FA247008B4007108A2
:100AE400B5007208B6007308B7000030F400003097
:100AF400F5002030F6008130F700CC200030F400FF
:100B0400C030F5007F30F6008830F700D921700836
:100B1400B4007108B5007208B6007308B70000305D
:100B2400F4000030F5004830F6008530F700CC20A2
:100B34007008B4007108B5007208B6007308B700F5
:020B44000800A7
:100B4600FF3083120313C100FF30C200FF30C30021
:100B5600FF309F01C0309F042109F0007008831602
:0C0B66009F051F179F1783121F14080023
:100B720010258A110A128000840AB80A0319B90AD8
:080B8200F003031DB92D08006A
:100B8A00831603130613861386120612861106119C
:100B9A0083120613861306118611061286120D2079
:100BAA000D200D200616861606170B2006130D209B
:100BBA0006170B2006130D2006170B2006130D200F
:100BCA00861206170B2006130D2006170B20061394
:100BDA000612061506170B2006130D200611861697
:100BEA0006170B200613861206170B2006130D2074
:100BFA0006170B200613861606170B2006130D2060
:100C0A00861206170B200613061586150616861673
:0C0C1A0006170B2006130D2044140800E0
:100C2600BE2683160313071187110712A325C525B0
:100C36000130D4001F200C30D4001F200130D40016
:100C46001F206A255C253F250030F4000030F500A2
:100C56002030F6008330F7003408F0003508F10044
:100C66003608F2003708F3008221013003180030FD
:100C7600F00070080319512E07150712871103306B
:100C8600FB008A30FC005530FD00FD0B482EFC0BA6
:100C9600482EFB0B482E00000000A42E0030F40066
:100CA6000030F5002030F6008330F7003408F000FD
:100CB6003508F1003608F2003708F30082210130CA
:100CC600031C0030F00070080319932E3408F4005A
:100CD6003508F5003608F6003708F7000030F00052
:100CE6000030F1007030F2008330F30082210130D1
:100CF600031C0030F00070080319932E87150711A6
:100D060007120330FB008A30FC005530FD00FD0B56
:100D16008A2EFC0B8A2EFB0B8A2E00000000A42EC6
:100D26000716071187110330FB008A30FC00553087
:100D3600FD00FD0B9C2EFC0B9C2EFB0B9C2E00003D
:060D46000000242EA52E82
:100D7C0021308400133083120313F000AB30B80021
:080D8C000630B900B92508008A
:020D56000F3458
:100D5800543445344D34503420343D342034003438
:080D680049344E3446340034D6
:080D70004E3461344E340034AE
:040D780030340034DF
:02400E004A2F37
:00000001FF
