:020000001C29B9
:10000600103083120313FD00FD0B072800000800C3
:10001600083083120313FC002330FD00FD0B11286A
:06002600FC0B112808008C
:04002C0000000800C8
:1000300083160313CE1B1F288312871321288312D4
:10004000871783164E1B272883120713292883122C
:1000500007178316CE1A2F2883128712312883128E
:10006000871683164E1A37288312071239288312EF
:1000700007166F183D2807153E280711871516200B
:1000800087118316CE1947288312871349288312B4
:10009000871783164E194F2883120713512883128E
:1000A00007178316CE1857288312871259288312F0
:1000B000871683164E185F28831207126128831251
:1000C00007166F186528071566280711871516206B
:0E00D00087116F1C6D280B206E28032008007E
:0E00DE008316031346088A00450882000800B6
:1000EC00831203136F1083164D08CE0018206F1463
:0200FC000800FA
:1000FE00831603138711071107128712071387132D
:10010E0083128711071187130713871207120B200B
:10011E000B200B20871607168715162087110B202C
:10012E008715162087110B208715162087110B2097
:10013E0007128715162087110B2087151620871199
:10014E00871287178715162087110B20871307161E
:10015E0087151620871107128715162087110B2079
:10016E0087151620871107168715162087110B2065
:10017E000712871516208711871707178716071678
:0C018E008715162087110B206F14080045
:10019A00DF28803083160313C900F228C030C90053
:1001AA00F2289430C900F228D430C900F2288030ED
:1001BA00C900F228831603134908013A0319CE2805
:1001CA004908023A0319D3284908033A0319D628D9
:1001DA004908043A0319D928DC284A03F0004908D7
:1001EA00F0077008C9007008CE0018206F10831637
:1001FA00CC014C084B078400000803190D294C0850
:10020A004B0784000008CD0076208316CC0AFE280E
:06021A0083126F140800BE
:100220006F208A110A128000840AC50A0319C60ABF
:08023000F003031D1029080072
:10023800EA2183160313C701C8017F200C308316F7
:10024800CE00182001308316C9000130CA004708C3
:10025800F0004808F100F00DF10D70107008203E14
:1002680084000008CB00CD2002308316C90001307D
:10027800CA004708F0004808F100F00DF10D7010B1
:100288002030F007700A84000008CB00CD2006302B
:10029800FB001330FC00AD30FD00FD0B5129FC0BB9
:1002A8005129FB0B51290000000001308316CE00B4
:1002B80018208316C70A0319C80A80304806F000B8
:1002C80080307002031D6A2904304702031C6E291E
:0802D800C701C80126296F29A6
:1003D400203084004F3083120313F00075308316ED
:1003E400C5000130C6001021A03084002530F00083
:0E03F400C4308316C5000130C6001021080079
:1002EA005A34A0344B3431343A34A934B234283431
:1002FA00463445343234313441343134333433348E
:02030A000034BD
:10030C004634453432343134413431343234393476
:02031C000034AB
:10031E0041344B3445344E3447344E344934203412
:10032E0045344D344D3441344E34553445344C34CB
:02033E00003489
:1003400041344A3441344D34413448342034473404
:0E0350004F3444344C344F345634453400346A
:10035E0044344A3445345534543449344F342034BB
:10036E0041344E3444344534523453344F344E3485
:0A037E00203452344F345934003457
:1003880046344534323431344134313436343934F6
:0203980000342F
:10039A0046344534323431344134313433343234EE
:0203AA0000341D
:1003AC0041344C34413449344E3420344E344B3483
:1003BC004534483420344D34423455344E344B3467
:0603CC00553452340034E8
:02400E004A2F37
:00000001FF
