:02000000AF2D22
:10000600103083120313FD00FD0B072800000800C3
:0400160000000800DE
:10001A00083083120313FC002330FD00FD0B132864
:06002A00FC0B1328080086
:1000300083120313D81B1E2887111F288715581BEE
:100040002328071124280715D81A282887102928BB
:100050008714581A2D2807102E2807143C18322808
:1000600007163328071287160B208712D8193A284B
:1000700087113B28871558193F2807114028071575
:10008000D81844288710452887145818492807107D
:100090004A2807143C184E2807164F2807128716BF
:1000A0000B2087123C1C56280D20572803200800DF
:0800B000FA1FF21300300800F2
:1000B800FB14FB1F6628FF30F300F200F100F0008C
:0800C800FA0DF20CFF300800F4
:1000D0007B15FB1F72280130F300F201F101F001E2
:0800E000FA0DF20CFF300800DC
:0E00E800F201F101F001F801F301003008000F
:0E00F600073083120313FD00FD0B7F28080066
:0E010400831203133B088A003A0882000800A9
:06011200FB15FF300800A0
:10011800A0017208031DA1287108F2007008F100FF
:10012800F001A0157208031DA1287108F200F10161
:10013800A011201672080319AF282008F302031D26
:10014800031CB3280310F21BB728F00DF10DF20DB4
:10015800F30BA728B3280130FC007420BA2802301A
:0E016800FC006820BA280430FC005820080073
:1001760083120313FD01F801700803190034740695
:10018600FA00FA1BFD09FB01F41FCB28F409F40A57
:10019600F01FCF28F009F00A70087404FA00FA1B61
:1001A600F3287408F802F00D700DF80D7408F807BE
:1001B600F00D0630FC00700DF80D74087018F8028A
:1001C600701CF807F00DFC0BDE28701CF8077B1876
:1001D6000129FD1F0034F009F00AF809F80A003475
:1001E600F41FFE28F01BFB287008F800F001EC282D
:1001F600F001F00A0034F009FB0AD428F80A740862
:100206007802031DEC28F801F00AF01FEC28FF34F1
:020216000800DE
:1002180083120313FB017308031D7708031963296D
:1002280072087606FA007708F3077E30031C202947
:10023800F302031866292329F302031C69297208AB
:10024800F8007108FC007008FD00F817F617031095
:10025800F201F101F0011830A0007D1C3D2974085D
:10026800F00775080318750FF10776080318760F5D
:10027800F207F20CF10CF00CF80CFC0CFD0C03105E
:10028800A00B3129F21B4D29F80DF00DF10DF20DDF
:10029800F3037B1B701C5F29F81F5F29F00A031901
:1002A800F10A0319F20A031D5F29F20CF10CF00C94
:1002B800F30A03196629FA1FF21300306B2901307B
:1002C80074206B2902305C206B2904306820000000
:0202D80008001C
:1002DA0083120313FA017308031D7A147708031DA6
:1002EA00FA147A080319B929033A031984297A18DE
:1002FA008129F61FB729B529F21FB529B72972082E
:10030A008039FA00F21376088039F6137A0603194F
:10031A0092297A080319B529B729770873020319AC
:10032A009929031CAD29B129760872020319A0295B
:10033A00031CAD29B129750871020319A729031CE9
:10034A00AD29B129740870020319B9290318B12912
:10035A00FA080319B729B529FA080319B529B729DB
:10036A00031408000310080003140315080008000A
:10037A00831203133C105608D80018203C140800B6
:10038A00831203135608F2007208F100F20A5708A2
:10039A00F000D70A700884000008F0007108840091
:1003AA00700880007108840000080319DD29C92932
:0603BA005608F0000800E7
:1003C00083120313D401D5014908D0004A08D10093
:1003D0004B08D2004C08D3005308FF3A031DFA29FA
:1003E0005208FF3A031DFA295108FF3A031DFA2962
:1003F0005008FF3A031D042A4D08D6002130D700CB
:10040000C5210330F000DD2B0130CE00D21F132AAE
:1004100080305206F0007008D200CE0A4D088400E9
:100420002D308000CD0A0030F0005306031D222A33
:1004300070085206031D222A70085106031D222A45
:100440005008003A031D2B2A4D08D6002630D7004D
:10045000C521F001DD2B5308FF3A031D392A52084C
:10046000003A031D392A5108003A031D392A500861
:10047000003A031D432A4D08D6002830D700C52175
:100480004E08F000DD2B0030F4000030F5000030A5
:10049000F6007F30F7005008F0005108F1005208D4
:1004A000F2005308F3006D21013003180030F00012
:1004B00070080319762A5008F0005108F10052081C
:1004C000F2005308F3000030F4000030F500203053
:1004D000F6008230F7000C217008D0007108D100BE
:1004E0007208D2007308D300D503432A0030F40009
:1004F0000030F5002030F6008230F7005008F000A0
:100500005108F1005208F2005308F3006D21013048
:10051000031C0030F00070080319A92A5008F000ED
:100520005108F1005208F2005308F300CD30F400F6
:10053000CC30F5004C30F6007B30F7000C21700811
:10054000D0007108D1007208D2007308D300D50A18
:10055000762AFF305005F800FF305105F9007F3052
:100560005205FA0000305305FB007808F4007908C2
:10057000F5007A08F6007B08F700F40DF50DF60D8E
:10058000F70D741000305005F00000305105F100F7
:1005900000305205F200FF305305F3007008D00020
:1005A0007108D1007208D2007308D3007408500497
:1005B000F00075085104F10076085204F200770843
:1005C0005304F3007008D0007108D1007208D20003
:1005D0007308D3007F305302F0007008CF00013061
:1005E000D3007008F4005008F0005108F1005208E0
:1005F000F2005308F30074080319052BF00DF10DF8
:10060000F20DF30D7010FF3EFC2A7008D000710847
:10061000D1007208D2007308D3005308303EF000B6
:100620004D08840070088000CD0A80305506F00027
:100630008030013A7002031C262B8030063AF0000D
:10064000803055067002031C262B2D2B4D0884008C
:100650002E308000CD0A0130D4000630CF004F0884
:10066000003A03198B2BD3015008F0005108F10018
:100670005208F2005308F300F00DF10DF20DF30DE6
:100680007010F00DF10DF20DF30D70105008F00721
:1006900051080318510FF10752080318520FF207BF
:1006A00053080318530FF3077008D0007108D100E6
:1006B0007208D2007308D3005008F0005108F1000E
:1006C0005208F2005308F300F00DF10DF20DF30D96
:1006D00070107008D0007108D1007208D200730841
:1006E000D3005308303EF0004D08840070088000AD
:1006F000CD0A5408003A031D892BD5035508003A4A
:10070000031D892B4D0884002E308000CD0A013056
:10071000D400CF032F2BFF304D0784000008303A60
:10072000031D942BCD038B2BFF304D078400000855
:100730002E3A031D9C2BCD035508003A0319D92BE3
:100740004D08840065308000CD0A80305506F000E9
:100750008030003A70020318B52B4D0884002D300C
:100760008000CD0A5508003CD5005508CF008030E8
:10077000093AF0008030550670020318CB2B0A307E
:10078000F4004F08F000BB203030F0074D08840023
:1007900070088000CD0A0A30F4004F08F000BB203A
:1007A0007808F0003030F0074D08840070088000B1
:0C07B000CD0A4D0884008001F001080013
:1007BC00831203137408003A031DF92B7508003AD1
:1007CC00031DF92B7608003A031DF92B7708003A24
:1007DC00031DF92BFF30F000FF30F1007F30F200E9
:1007EC00FF30F300942C8312031377080319882C21
:1007FC00730803198B2C720876068039FA00F217ED
:10080C00F617A0017208F8007108FC007008FD00D2
:10081C007408FD027508031C750FFC027608031C96
:10082C00760FF802F801FC01FD01031C242C0310C7
:10083C00F20CF10CF00CF80C0130A0007708F3026C
:10084C00031C2E2C7E302007F30703188E2C332C20
:10085C007E302007F307031C912C1830FA07FD0D8E
:10086C00FC0DF80DF00DF10DF20DA00D7408F00259
:10087C007508031C750FF1027608031C760FF20243
:10088C00760DA004201C4C2C7D14572C7408F007FA
:10089C0075080318750FF10776080318760AF20726
:1008AC007D10FA031F307A05031D352C7B1B7D1C34
:1008BC007E2C0310F00DF10DF20DA00D7408F0025A
:1008CC007508031C750FF1027608031C760FF202F3
:1008DC00760D20040139FD070318FC0A0319F80AE8
:1008EC00031D7E2CF80CFC0CFD0CF30A03198E2C4A
:1008FC00FA1FF8137808F2007C08F1007D08F0006C
:10090C000030932C01308920932C02307420932CCE
:0E091C0004305C20932C083068200000080096
:10092A00A72C803083120313C900BA2CC030C90027
:10093A00BA2C9430C900BA2CD430C900BA2C8030F1
:10094A00C900BA2C831203134908013A0319962CD9
:10095A004908023A03199B2C4908033A03199E2CA9
:10096A004908043A0319A12CA42C4A03F0004908A7
:10097A00F0077008C9007008D80018203C10CC0194
:10098A004C084B07840000080319D32C4C084B076A
:10099A0084000008D600BD21CC0AC52C3C140800EE
:1009AA00831203137008F8007108F000F101F201D4
:1009BA00F301FB01FC019630F300FA017008F10023
:0C09CA007808F000F801F2018C20080011
:1009D600831203139F01C0309F042509F00070089D
:1009E60083169F051F179F1783124908F000F00D05
:1009F6007010F00D7010F00D701070089F041F1429
:100A06007B201F151F1D092D0000052D1F101E0818
:100A1600F100F00183161E08F0040030F10408000E
:100A260082208A110A128000840ABA0A0319BB0AB4
:080A3600F003031D132D08005D
:100A3E00FF3083120313C600FF30C700FF30C8001B
:100A4E00FF309F01C0309F042509F0007008831607
:0C0A5E009F051F179F1783121F1408002C
:100A6A0083160313871207120710871007118711BD
:100A7A0083128712071287110711871007100D209A
:100A8A000D200D208714071487160B2087120D20BE
:100A9A0087160B2087120D2087160B2087120D2030
:100AAA00071087160B2087120D2087160B20871236
:100ABA008710871587160B2087120D2087110714B8
:100ACA0087160B208712071087160B2087120D2016
:100ADA0087160B208712071487160B2087120D2002
:100AEA00071087160B208712871507158714071416
:0C0AFA0087160B2087120D203C1408000A
:100B060083120313CA01CB014908F2004908F30016
:100B1600720884000008203A031D962D4A084B04EB
:100B2600031D962DA32D0130CA000030CB0072089C
:100B360084000008F0007308840070088000F30A3F
:100B46007208F100F20A710884000008003A031DD9
:080B56008B2D4908F000080096
:100B5E001A26831203138501013083168500831232
:100B6E0087018316870135251F250C30D8001820E4
:100B7E000130D8001820C901EB24D5240030F40030
:100B8E000030F5004830F6008530F700DE2370089F
:100B9E00C2007108C3007208C4007308C500700853
:100BAE00C9007108CA007208CB007308CC003D3032
:100BBE00CD00E0210230C9000130CA002C30CB003C
:100BCE0095243D30C90083257008CB000230C90042
:100BDE000B30CA0095240230C9001630CA003730D7
:080BEE00CB009524C22DFA2D65
:100C340021308400193083120313F0000030BA000D
:080C44000630BB001325080077
:080C00004E3461344E3400341F
:020C08000F34A7
:040C0A00303400344E
:080C0E0049344E344634003431
:100C160056346F346C34743461346734653420343C
:060C26003D3420340034CF
:060C2C00203456340034B0
:02400E004A2F37
:00000001FF
